{
 "cells": [
  {
   "cell_type": "markdown",
   "metadata": {},
   "source": [
    "# P2WPKH(multisig) - BX Example\n",
    "\n",
    "<br>\n",
    "<img src=\"images/p2wsh.jpg\" alt=\"drawing\" style=\"\" width=\"800px\"/>\n",
    "\n",
    "<hr style=\"border: 0.5px dashed #000;\">\n",
    "\n",
    "\n"
   ]
  },
  {
   "cell_type": "code",
   "execution_count": 1,
   "metadata": {},
   "outputs": [],
   "source": [
    "// Compiler & linker information for c++ interpreter.\n",
    "#pragma cling add_include_path(\"/usr/local/include\")\n",
    "#pragma cling add_library_path(\"/usr/local/lib\")\n",
    "#pragma cling load(\"bitcoin\",\"secp256k1\",\"pthread\",\"boost_chrono-mt\",\"boost_date_time-mt\",\"boost_filesystem\",\"boost_iostreams-mt\",\"boost_locale-mt\",\"boost_log-mt\",\"boost_program_options-mt\",\"boost_regex-mt\",\"boost_system\",\"boost_thread-mt\")\n",
    "\n",
    "// Libbitcoin-System.\n",
    "#include <bitcoin/bitcoin.hpp> \n"
   ]
  },
  {
   "cell_type": "markdown",
   "metadata": {},
   "source": [
    "## 1. Spend to a P2WSH(multisig) output.\n"
   ]
  },
  {
   "cell_type": "markdown",
   "metadata": {},
   "source": [
    "* Witness script: **`2/3 multsig`**\n",
    "* Output script: **`zero [32-byte sha256(witness script)]`**"
   ]
  },
  {
   "cell_type": "code",
   "execution_count": 2,
   "metadata": {},
   "outputs": [
    {
     "name": "stdout",
     "output_type": "stream",
     "text": [
      "010000000163336e2138668a74127d5f9c8fab5862fa63645533cc33c2970492455663ad86090000006b48304502210085e59c38a5952ae54a7581720ebfb825a9632f12e0beb756bc074b3ee7c6bbbc0220282a9a230b294fa9ebe600e41a29945af11ebb8e4ee93afecd58f332f2de8d7d012102c8e0e676fd5d0c03e27604758e6c7450db599d4d43b9262c87dd5c95e57ff900ffffffff01fd9c070000000000220020a6bc7bb11b6583604df28a39250d70b4af6f0561332137fcaa265a38136c8c6000000000\n"
     ]
    }
   ],
   "source": [
    "{\n",
    "    //**************************************************************\n",
    "    // 1. Restore wallet and generate spending / receiving key pairs\n",
    "    //**************************************************************\n",
    "\n",
    "    std::string my_sentence = \"amount right cheese defy click eight slight strategy replace earn simple labor\";\n",
    "    const auto my_word_list = bc::split(my_sentence, \" \", true);\n",
    "\n",
    "    const auto hd_seed = bc::wallet::decode_mnemonic(my_word_list);\n",
    "\n",
    "    bc::wallet::hd_private hd_master_private(bc::to_chunk(hd_seed),\n",
    "        bc::wallet::hd_private::testnet);\n",
    "    const auto hd_master_public = hd_master_private.to_public();\n",
    "\n",
    "    // We will be spending a p2pkh output script controlled by\n",
    "    // the following key: m/44'/1'/1'/0/9\n",
    "    //-------------------------------------------------------------\n",
    "\n",
    "    const auto hd_m_44h_1h_1h_0_9 = hd_master_private\n",
    "        .derive_private(44 + bc::wallet::hd_first_hardened_key)\n",
    "        .derive_private(1 + bc::wallet::hd_first_hardened_key)\n",
    "        .derive_private(1 + bc::wallet::hd_first_hardened_key)\n",
    "        .derive_private(0)\n",
    "        .derive_private(9);\n",
    "    const auto secret_44h_1h_1h_0_9 = hd_m_44h_1h_1h_0_9.secret();\n",
    "    const auto pubkey_44h_1h_1h_0_9 =\n",
    "        hd_m_44h_1h_1h_0_9.to_public().point();\n",
    "\n",
    "    bc::wallet::payment_address payment_address_44h_1h_1h_0_9(\n",
    "        pubkey_44h_1h_1h_0_9, bc::wallet::payment_address::testnet_p2kh);\n",
    "\n",
    "    // Generate receiving keys for the P2SH(Multisig) output.\n",
    "    //-------------------------------------------------------------\n",
    "\n",
    "    // Three Receiving public keys in 3rd wallet account.\n",
    "\n",
    "    const auto hd_m_44h_1h_2h_0 = hd_master_private\n",
    "        .derive_private(44 + bc::wallet::hd_first_hardened_key)\n",
    "        .derive_private(1 + bc::wallet::hd_first_hardened_key)\n",
    "        .derive_private(2 + bc::wallet::hd_first_hardened_key)\n",
    "        .derive_private(0);\n",
    "\n",
    "    const auto hd_m_44h_1h_2h_0_9 = hd_m_44h_1h_2h_0.derive_private(9);\n",
    "    const auto pubkey_44h_1h_2h_0_9 = hd_m_44h_1h_2h_0_9.to_public().point();\n",
    "\n",
    "    const auto hd_m_44h_1h_2h_0_10 = hd_m_44h_1h_2h_0.derive_private(10);\n",
    "    const auto pubkey_44h_1h_2h_0_10 = hd_m_44h_1h_2h_0_10.to_public().point();\n",
    "\n",
    "    const auto hd_m_44h_1h_2h_0_11 = hd_m_44h_1h_2h_0.derive_private(11);\n",
    "    const auto pubkey_44h_1h_2h_0_11 = hd_m_44h_1h_2h_0_11.to_public().point();\n",
    "\n",
    "    //**************************************************************\n",
    "    // 2. Fetch previous P2PKH UTXO which we will spend.\n",
    "    //**************************************************************\n",
    "\n",
    "    // Previous TX hash.\n",
    "    const auto prev_tx_literal =\n",
    "        \"86ad635645920497c233cc33556463fa6258ab8f9c5f7d12748a6638216e3363\";\n",
    "    bc::hash_digest prev_tx_hash;\n",
    "    bc::decode_hash(prev_tx_hash, prev_tx_literal);\n",
    "\n",
    "    // Previous UXTO prev_index.\n",
    "    uint32_t prev_index = 9;\n",
    "    bc::chain::output_point uxto_to_spend(prev_tx_hash, prev_index);\n",
    "\n",
    "    // Previous script.\n",
    "    const auto prev_p2pkh_output_script =\n",
    "        bc::chain::script::to_pay_key_hash_pattern(\n",
    "            bc::bitcoin_short_hash(pubkey_44h_1h_1h_0_9));\n",
    "\n",
    "    // Previous output amount.\n",
    "    uint64_t previous_output_amount(499543);\n",
    "\n",
    "    //**************************************************************\n",
    "    // 3. Build, Sign & Complete Transaction.\n",
    "    //**************************************************************\n",
    "\n",
    "    // A. Encode P2SH(multisig) output.\n",
    "    //-------------------------------------------------------------\n",
    "\n",
    "    // Witness script: 2/3 Multisig.\n",
    "    uint8_t signature_number(2u);\n",
    "    bc::point_list points;\n",
    "    points.push_back(pubkey_44h_1h_2h_0_9);\n",
    "    points.push_back(pubkey_44h_1h_2h_0_10);\n",
    "    points.push_back(pubkey_44h_1h_2h_0_11);\n",
    "    bc::chain::script witness_script =\n",
    "        bc::chain::script::to_pay_multisig_pattern(signature_number, points);\n",
    "\n",
    "    // P2WSH output script.\n",
    "    //    0 [32-byte sha256(witness script)]\n",
    "    const auto witness_script_hash =\n",
    "        bc::sha256_hash_chunk(witness_script.to_data(false)); // no prefix.\n",
    "    bc::machine::operation::list p2sh_operations;\n",
    "    p2sh_operations.push_back(\n",
    "        bc::machine::operation(bc::machine::opcode::push_size_0));\n",
    "    p2sh_operations.push_back(\n",
    "        bc::machine::operation(witness_script_hash));\n",
    "\n",
    "    // Compute fees.\n",
    "    // tx bytes: 4 + 1 + 1*(32+4+110+4) + 1 + 1*(8+1+1+34) + 4 = 202\n",
    "    // 1 non-witness sigop: 1 * 400\n",
    "    // 499543 - 1 * 400 - 202 = 498941\n",
    "    uint64_t output_amount(498941);\n",
    "\n",
    "    // Build output.\n",
    "    bc::chain::output p2wsh_output(output_amount, p2sh_operations);\n",
    "\n",
    "    // B. Build Transaction for signing.\n",
    "    //-------------------------------------------------------------\n",
    "\n",
    "    // Build input0 object.\n",
    "    bc::chain::input input0;\n",
    "    input0.set_previous_output(uxto_to_spend);\n",
    "    input0.set_sequence(bc::max_input_sequence);\n",
    "\n",
    "    // Build Transaction.\n",
    "    bc::chain::transaction tx;\n",
    "    tx.set_version(1u);\n",
    "    tx.inputs().push_back(input0);\n",
    "    tx.outputs().push_back(p2wsh_output);\n",
    "\n",
    "    // Signature.\n",
    "    bc::endorsement signature;\n",
    "    uint8_t input0_index(0u);\n",
    "    bc::chain::script::create_endorsement(signature, secret_44h_1h_1h_0_9,\n",
    "      prev_p2pkh_output_script, tx, input0_index,\n",
    "      bc::machine::sighash_algorithm::all);\n",
    "\n",
    "    // B. Finalise Transaction.\n",
    "    //-------------------------------------------------------------\n",
    "\n",
    "    // Set input script into transaction.\n",
    "    bc::machine::operation::list p2pkh_operations;\n",
    "    p2pkh_operations.push_back(bc::machine::operation(signature));\n",
    "    p2pkh_operations.push_back(bc::machine::operation(\n",
    "        bc::to_chunk(pubkey_44h_1h_1h_0_9)));\n",
    "    bc::chain::script p2pkh_input_script(p2pkh_operations);\n",
    "    tx.inputs()[0].set_script(p2pkh_input_script);\n",
    "\n",
    "    std::cout << bc::encode_base16(tx.to_data()) << std::endl;\n",
    "}"
   ]
  },
  {
   "cell_type": "code",
   "execution_count": 13,
   "metadata": {},
   "outputs": [
    {
     "name": "stdout",
     "output_type": "stream",
     "text": [
      "{\n",
      "    \"transaction\": {\n",
      "        \"hash\": \"2fc6c2abe0352b2cf1c4e1f48c10757e7a69b6b4f1a8252448a23221abbe00fa\",\n",
      "        \"inputs\": [\n",
      "            {\n",
      "                \"address_hash\": \"af9cb1da5f66a5f129c1efa9970145c954d8a461\",\n",
      "                \"previous_output\": {\n",
      "                    \"hash\": \"86ad635645920497c233cc33556463fa6258ab8f9c5f7d12748a6638216e3363\",\n",
      "                    \"index\": \"9\"\n",
      "                },\n",
      "                \"script\": \"[304502210085e59c38a5952ae54a7581720ebfb825a9632f12e0beb756bc074b3ee7c6bbbc0220282a9a230b294fa9ebe600e41a29945af11ebb8e4ee93afecd58f332f2de8d7d01] [02c8e0e676fd5d0c03e27604758e6c7450db599d4d43b9262c87dd5c95e57ff900]\",\n",
      "                \"sequence\": \"4294967295\"\n",
      "            }\n",
      "        ],\n",
      "        \"lock_time\": \"0\",\n",
      "        \"outputs\": [\n",
      "            {\n",
      "                \"script\": \"zero [a6bc7bb11b6583604df28a39250d70b4af6f0561332137fcaa265a38136c8c60]\",\n",
      "                \"value\": \"498941\"\n",
      "            }\n",
      "        ],\n",
      "        \"version\": \"1\"\n",
      "    }\n",
      "}\n"
     ]
    }
   ],
   "source": [
    "!bx tx-decode -f json 010000000163336e2138668a74127d5f9c8fab5862fa63645533cc33c2970492455663ad86090000006b48304502210085e59c38a5952ae54a7581720ebfb825a9632f12e0beb756bc074b3ee7c6bbbc0220282a9a230b294fa9ebe600e41a29945af11ebb8e4ee93afecd58f332f2de8d7d012102c8e0e676fd5d0c03e27604758e6c7450db599d4d43b9262c87dd5c95e57ff900ffffffff01fd9c070000000000220020a6bc7bb11b6583604df28a39250d70b4af6f0561332137fcaa265a38136c8c6000000000 \n",
    "    "
   ]
  },
  {
   "cell_type": "code",
   "execution_count": 14,
   "metadata": {},
   "outputs": [
    {
     "name": "stdout",
     "output_type": "stream",
     "text": [
      "matching transaction with unspent outputs\n"
     ]
    }
   ],
   "source": [
    "!bx validate-tx 010000000163336e2138668a74127d5f9c8fab5862fa63645533cc33c2970492455663ad86090000006b48304502210085e59c38a5952ae54a7581720ebfb825a9632f12e0beb756bc074b3ee7c6bbbc0220282a9a230b294fa9ebe600e41a29945af11ebb8e4ee93afecd58f332f2de8d7d012102c8e0e676fd5d0c03e27604758e6c7450db599d4d43b9262c87dd5c95e57ff900ffffffff01fd9c070000000000220020a6bc7bb11b6583604df28a39250d70b4af6f0561332137fcaa265a38136c8c6000000000\n",
    "    "
   ]
  },
  {
   "cell_type": "markdown",
   "metadata": {},
   "source": [
    "<hr style=\"border: 0.5px dashed #000;\">\n",
    "\n",
    "## 2. Spend a P2WSH(multisig) output."
   ]
  },
  {
   "cell_type": "markdown",
   "metadata": {},
   "source": [
    "* Input script: **`\"empty\"`**\n",
    "* Script code: **`witness script`**\n",
    "* Witness: **`input script [witness script]`**"
   ]
  },
  {
   "cell_type": "code",
   "execution_count": 15,
   "metadata": {},
   "outputs": [
    {
     "name": "stdout",
     "output_type": "stream",
     "text": [
      "01000000000101fa00beab2132a2482425a8f1b4b6697a7e75108cf4e1c4f12c2b35e0abc2c62f0000000000ffffffff0158920700000000001976a914e48199d47742b245464b1366d95ef26aa4c8bb2c88ac04004730440220467018ac9dd7eb5d0d1ea658d0c00d1665f00f64a3dc5a0db806fd6ae108c17b02204c18ad2cb9e8b458b894b45c759366396882749953d75b984a81cd2347bd121101483045022100e873748971dff0a90cd9de8d283ece441f7ef42f3a8b123b810de08d3ba9e1d1022063561516aa29721cd9f958a11f2431511de15e23772033a2b2105561a92c8ec40169522102863e4d95089a6368c270649e15dd27ba138f1e23aec6bf150d3731bc7fc003802103fcc782abbe5c6c4eb2b55c8c3740245a6e39648dbfcb38abd0b1ca09b7f49b3121036d30c6fde9a93fec8167c0a8a555cef27f291168d2a92c0fd0ff075f0631165e53ae00000000\n"
     ]
    }
   ],
   "source": [
    "{\n",
    "    //**************************************************************\n",
    "    // 1. Restore wallet and generate spending key pairs\n",
    "    //**************************************************************\n",
    "\n",
    "    std::string my_sentence = \"amount right cheese defy click eight slight strategy replace earn simple labor\";\n",
    "    const auto my_word_list = bc::split(my_sentence, \" \", true);\n",
    "\n",
    "    const auto hd_seed = bc::wallet::decode_mnemonic(my_word_list);\n",
    "\n",
    "    bc::wallet::hd_private hd_master_private(bc::to_chunk(hd_seed),\n",
    "        bc::wallet::hd_private::testnet);\n",
    "    const auto hd_master_public = hd_master_private.to_public();\n",
    "\n",
    "    // Three Receiving public keys in 3rd wallet account.\n",
    "    //-------------------------------------------------------------\n",
    "\n",
    "    const auto hd_m_44h_1h_2h_0 = hd_master_private\n",
    "        .derive_private(44 + bc::wallet::hd_first_hardened_key)\n",
    "        .derive_private(1 + bc::wallet::hd_first_hardened_key)\n",
    "        .derive_private(2 + bc::wallet::hd_first_hardened_key)\n",
    "        .derive_private(0);\n",
    "\n",
    "    const auto hd_m_44h_1h_2h_0_9 = hd_m_44h_1h_2h_0.derive_private(9);\n",
    "    const auto secret_44h_1h_2h_0_9 = hd_m_44h_1h_2h_0_9.secret();\n",
    "    const auto pubkey_44h_1h_2h_0_9 = hd_m_44h_1h_2h_0_9.to_public().point();\n",
    "\n",
    "    const auto hd_m_44h_1h_2h_0_10 = hd_m_44h_1h_2h_0.derive_private(10);\n",
    "    const auto secret_44h_1h_2h_0_10 = hd_m_44h_1h_2h_0_10.secret();\n",
    "    const auto pubkey_44h_1h_2h_0_10 = hd_m_44h_1h_2h_0_10.to_public().point();\n",
    "\n",
    "    const auto hd_m_44h_1h_2h_0_11 = hd_m_44h_1h_2h_0.derive_private(11);\n",
    "    const auto secret_44h_1h_2h_0_11 = hd_m_44h_1h_2h_0_11.secret();\n",
    "    const auto pubkey_44h_1h_2h_0_11 = hd_m_44h_1h_2h_0_11.to_public().point();\n",
    "\n",
    "    //**************************************************************\n",
    "    // 2. Fetch previous P2PKH UTXO which we will spend.\n",
    "    //**************************************************************\n",
    "\n",
    "    // Previous TX hash.\n",
    "    const auto prev_tx_literal =\n",
    "        \"2fc6c2abe0352b2cf1c4e1f48c10757e7a69b6b4f1a8252448a23221abbe00fa\";\n",
    "    bc::hash_digest prev_tx_hash;\n",
    "    bc::decode_hash(prev_tx_hash, prev_tx_literal);\n",
    "\n",
    "    // Previous UXTO prev_index.\n",
    "    uint32_t prev_index = 0;\n",
    "    bc::chain::output_point uxto_to_spend(prev_tx_hash, prev_index);\n",
    "\n",
    "    // Previous output script not required for signing witness transactions.\n",
    "\n",
    "    // Previous output amount.\n",
    "    uint64_t previous_output_amount(498254);\n",
    "\n",
    "    //**************************************************************\n",
    "    // 3. Build, Sign & Complete Transaction.\n",
    "    //**************************************************************\n",
    "\n",
    "    // A. Encode P2PKH output.\n",
    "    //-------------------------------------------------------------\n",
    "\n",
    "    // We will send our funds to n2MBcctgzBt1h8Nvfu3XAEPJLrmWET7emw\n",
    "    // ...pubkeyhash: e48199d47742b245464b1366d95ef26aa4c8bb2c\n",
    "\n",
    "    const auto receiving_pubkeyhash =\n",
    "        bc::base16_literal(\"e48199d47742b245464b1366d95ef26aa4c8bb2c\");\n",
    "    const auto p2pkh_operations =\n",
    "        bc::chain::script::to_pay_key_hash_pattern(receiving_pubkeyhash);\n",
    "\n",
    "    // Compute fees.\n",
    "    //-------------------------------------------------------------\n",
    "\n",
    "    // tx bytes: 4 + 1 + 1*(32+4+0+4) + 1 + 1*(8+33) + 4 = 91\n",
    "\n",
    "    // Witness tx size: (91) + 1 + 72 + 72 + 1 + 1 + 33 + 33 + 33 + 1 = 338\n",
    "\n",
    "    // # of sigops: one multisig in script_code, one in output.\n",
    "    // Output amount = 498951 - 1 * 20 * 100 - 1 * 400 - 338 * 1 = 496216\n",
    "\n",
    "    uint64_t output_amount(496216);\n",
    "\n",
    "    // Build P2WPKH output.\n",
    "    bc::chain::output p2wpkh_output(output_amount, p2pkh_operations);\n",
    "\n",
    "    // B. Build & Sign Transaction.\n",
    "    //-------------------------------------------------------------\n",
    "\n",
    "    // Build input0 object.\n",
    "    bc::chain::input input;\n",
    "    input.set_previous_output(uxto_to_spend);\n",
    "    input.set_sequence(bc::max_input_sequence);\n",
    "\n",
    "    // Build Transaction.\n",
    "    bc::chain::transaction tx;\n",
    "    tx.set_version(1);\n",
    "    tx.inputs().push_back(input);\n",
    "    tx.outputs().push_back(p2wpkh_output);\n",
    "\n",
    "    // Script code: witness script = e.g. multisig\n",
    "    uint8_t signatures(2); //2 of 3\n",
    "    bc::point_list points;\n",
    "    points.push_back(pubkey_44h_1h_2h_0_9);\n",
    "    points.push_back(pubkey_44h_1h_2h_0_10);\n",
    "    points.push_back(pubkey_44h_1h_2h_0_11);\n",
    "    bc::chain::script witness_script =\n",
    "        bc::chain::script::to_pay_multisig_pattern(signatures, points);\n",
    "\n",
    "    // Previous input index.\n",
    "    uint8_t input0_index(0);\n",
    "\n",
    "    // Create signatures for witness.\n",
    "    bc::endorsement sig0;\n",
    "    bc::endorsement sig1;\n",
    "    bc::chain::script::create_endorsement(sig0, secret_44h_1h_2h_0_9,\n",
    "        witness_script, tx, input0_index, bc::machine::sighash_algorithm::all,\n",
    "        bc::machine::script_version::zero, previous_output_amount);\n",
    "    bc::chain::script::create_endorsement(sig1, secret_44h_1h_2h_0_10,\n",
    "        witness_script, tx, input0_index, bc::machine::sighash_algorithm::all,\n",
    "        bc::machine::script_version::zero, previous_output_amount);\n",
    "\n",
    "    // Create witness.\n",
    "    bc::data_stack witness_stack;\n",
    "    bc::data_chunk empty_chunk;\n",
    "    witness_stack.push_back(empty_chunk);\n",
    "    witness_stack.push_back(sig0);\n",
    "    witness_stack.push_back(sig1);\n",
    "    witness_stack.push_back(witness_script.to_data(false));\n",
    "    bc::chain::witness p2wsh_witness(witness_stack);\n",
    "    tx.inputs()[0].set_witness(p2wsh_witness);\n",
    "\n",
    "    // Serialisation to include witness: wire=true/witness=true\n",
    "    std::cout << bc::encode_base16(tx.to_data(true, true)) << std::endl;\n",
    "}"
   ]
  },
  {
   "cell_type": "code",
   "execution_count": 11,
   "metadata": {},
   "outputs": [
    {
     "name": "stdout",
     "output_type": "stream",
     "text": [
      "{\n",
      "    \"transaction\": {\n",
      "        \"hash\": \"4d6b3b2cdb80970513f00fe0c6ee07e81d28b352d7f07758c193e3a5d3b0b8a6\",\n",
      "        \"inputs\": [\n",
      "            {\n",
      "                \"previous_output\": {\n",
      "                    \"hash\": \"2fc6c2abe0352b2cf1c4e1f48c10757e7a69b6b4f1a8252448a23221abbe00fa\",\n",
      "                    \"index\": \"0\"\n",
      "                },\n",
      "                \"script\": \"\",\n",
      "                \"sequence\": \"4294967295\",\n",
      "                \"witness\": \"[] [30440220467018ac9dd7eb5d0d1ea658d0c00d1665f00f64a3dc5a0db806fd6ae108c17b02204c18ad2cb9e8b458b894b45c759366396882749953d75b984a81cd2347bd121101] [3045022100e873748971dff0a90cd9de8d283ece441f7ef42f3a8b123b810de08d3ba9e1d1022063561516aa29721cd9f958a11f2431511de15e23772033a2b2105561a92c8ec401] [522102863e4d95089a6368c270649e15dd27ba138f1e23aec6bf150d3731bc7fc003802103fcc782abbe5c6c4eb2b55c8c3740245a6e39648dbfcb38abd0b1ca09b7f49b3121036d30c6fde9a93fec8167c0a8a555cef27f291168d2a92c0fd0ff075f0631165e53ae]\"\n",
      "            }\n",
      "        ],\n",
      "        \"lock_time\": \"0\",\n",
      "        \"outputs\": [\n",
      "            {\n",
      "                \"address_hash\": \"e48199d47742b245464b1366d95ef26aa4c8bb2c\",\n",
      "                \"script\": \"dup hash160 [e48199d47742b245464b1366d95ef26aa4c8bb2c] equalverify checksig\",\n",
      "                \"value\": \"496216\"\n",
      "            }\n",
      "        ],\n",
      "        \"version\": \"1\"\n",
      "    }\n",
      "}\n"
     ]
    }
   ],
   "source": [
    "!bx tx-decode -f json 01000000000101fa00beab2132a2482425a8f1b4b6697a7e75108cf4e1c4f12c2b35e0abc2c62f0000000000ffffffff0158920700000000001976a914e48199d47742b245464b1366d95ef26aa4c8bb2c88ac04004730440220467018ac9dd7eb5d0d1ea658d0c00d1665f00f64a3dc5a0db806fd6ae108c17b02204c18ad2cb9e8b458b894b45c759366396882749953d75b984a81cd2347bd121101483045022100e873748971dff0a90cd9de8d283ece441f7ef42f3a8b123b810de08d3ba9e1d1022063561516aa29721cd9f958a11f2431511de15e23772033a2b2105561a92c8ec40169522102863e4d95089a6368c270649e15dd27ba138f1e23aec6bf150d3731bc7fc003802103fcc782abbe5c6c4eb2b55c8c3740245a6e39648dbfcb38abd0b1ca09b7f49b3121036d30c6fde9a93fec8167c0a8a555cef27f291168d2a92c0fd0ff075f0631165e53ae00000000\n",
    "    "
   ]
  },
  {
   "cell_type": "code",
   "execution_count": 12,
   "metadata": {},
   "outputs": [
    {
     "name": "stdout",
     "output_type": "stream",
     "text": [
      "stack false\n"
     ]
    }
   ],
   "source": [
    "!bx validate-tx 01000000000101fa00beab2132a2482425a8f1b4b6697a7e75108cf4e1c4f12c2b35e0abc2c62f0000000000ffffffff0158920700000000001976a914e48199d47742b245464b1366d95ef26aa4c8bb2c88ac04004730440220467018ac9dd7eb5d0d1ea658d0c00d1665f00f64a3dc5a0db806fd6ae108c17b02204c18ad2cb9e8b458b894b45c759366396882749953d75b984a81cd2347bd121101483045022100e873748971dff0a90cd9de8d283ece441f7ef42f3a8b123b810de08d3ba9e1d1022063561516aa29721cd9f958a11f2431511de15e23772033a2b2105561a92c8ec40169522102863e4d95089a6368c270649e15dd27ba138f1e23aec6bf150d3731bc7fc003802103fcc782abbe5c6c4eb2b55c8c3740245a6e39648dbfcb38abd0b1ca09b7f49b3121036d30c6fde9a93fec8167c0a8a555cef27f291168d2a92c0fd0ff075f0631165e53ae00000000\n",
    "    \n",
    "    "
   ]
  }
 ],
 "metadata": {
  "kernelspec": {
   "display_name": "C++11",
   "language": "C++11",
   "name": "xeus-cling-cpp11"
  },
  "language_info": {
   "codemirror_mode": "text/x-c++src",
   "file_extension": ".cpp",
   "mimetype": "text/x-c++src",
   "name": "c++",
   "version": "-std=c++11"
  }
 },
 "nbformat": 4,
 "nbformat_minor": 2
}
